{
  "contractName": "PatientRecords",
  "abi": [
    {
      "constant": true,
      "inputs": [
        {
          "internalType": "uint256",
          "name": "",
          "type": "uint256"
        }
      ],
      "name": "patients",
      "outputs": [
        {
          "internalType": "address",
          "name": "user_address",
          "type": "address"
        },
        {
          "internalType": "string",
          "name": "username",
          "type": "string"
        },
        {
          "internalType": "string",
          "name": "name",
          "type": "string"
        },
        {
          "internalType": "string",
          "name": "gender",
          "type": "string"
        },
        {
          "internalType": "string",
          "name": "dateOfBirth",
          "type": "string"
        },
        {
          "internalType": "string",
          "name": "created_at",
          "type": "string"
        }
      ],
      "payable": false,
      "stateMutability": "view",
      "type": "function"
    },
    {
      "constant": true,
      "inputs": [
        {
          "internalType": "uint256",
          "name": "",
          "type": "uint256"
        }
      ],
      "name": "records",
      "outputs": [
        {
          "internalType": "string",
          "name": "id",
          "type": "string"
        },
        {
          "internalType": "address",
          "name": "user_address",
          "type": "address"
        },
        {
          "internalType": "string",
          "name": "title",
          "type": "string"
        },
        {
          "internalType": "uint256",
          "name": "date",
          "type": "uint256"
        },
        {
          "internalType": "string",
          "name": "filename",
          "type": "string"
        },
        {
          "internalType": "string",
          "name": "file",
          "type": "string"
        },
        {
          "internalType": "string",
          "name": "created_at",
          "type": "string"
        }
      ],
      "payable": false,
      "stateMutability": "view",
      "type": "function"
    },
    {
      "constant": false,
      "inputs": [
        {
          "internalType": "address",
          "name": "_user_address",
          "type": "address"
        },
        {
          "internalType": "string",
          "name": "_username",
          "type": "string"
        },
        {
          "internalType": "string",
          "name": "_name",
          "type": "string"
        },
        {
          "internalType": "string",
          "name": "_gender",
          "type": "string"
        },
        {
          "internalType": "string",
          "name": "_dateOfBirth",
          "type": "string"
        },
        {
          "internalType": "string",
          "name": "_created_at",
          "type": "string"
        }
      ],
      "name": "addPatient",
      "outputs": [],
      "payable": false,
      "stateMutability": "nonpayable",
      "type": "function"
    },
    {
      "constant": false,
      "inputs": [
        {
          "internalType": "string",
          "name": "_id",
          "type": "string"
        },
        {
          "internalType": "address",
          "name": "_user_address",
          "type": "address"
        },
        {
          "internalType": "string",
          "name": "_title",
          "type": "string"
        },
        {
          "internalType": "uint256",
          "name": "_date",
          "type": "uint256"
        },
        {
          "internalType": "string",
          "name": "_filename",
          "type": "string"
        },
        {
          "internalType": "string",
          "name": "_file",
          "type": "string"
        },
        {
          "internalType": "string",
          "name": "_created_at",
          "type": "string"
        }
      ],
      "name": "addRecord",
      "outputs": [],
      "payable": false,
      "stateMutability": "nonpayable",
      "type": "function"
    },
    {
      "constant": true,
      "inputs": [],
      "name": "getCount",
      "outputs": [
        {
          "internalType": "uint256",
          "name": "count",
          "type": "uint256"
        }
      ],
      "payable": false,
      "stateMutability": "view",
      "type": "function"
    },
    {
      "constant": true,
      "inputs": [],
      "name": "getPatientCount",
      "outputs": [
        {
          "internalType": "uint256",
          "name": "count",
          "type": "uint256"
        }
      ],
      "payable": false,
      "stateMutability": "view",
      "type": "function"
    },
    {
      "constant": true,
      "inputs": [
        {
          "internalType": "address",
          "name": "user_address",
          "type": "address"
        }
      ],
      "name": "getAllRecordsForAddress",
      "outputs": [
        {
          "components": [
            {
              "internalType": "string",
              "name": "id",
              "type": "string"
            },
            {
              "internalType": "address",
              "name": "user_address",
              "type": "address"
            },
            {
              "internalType": "string",
              "name": "title",
              "type": "string"
            },
            {
              "internalType": "uint256",
              "name": "date",
              "type": "uint256"
            },
            {
              "internalType": "string",
              "name": "filename",
              "type": "string"
            },
            {
              "internalType": "string",
              "name": "file",
              "type": "string"
            },
            {
              "internalType": "string",
              "name": "created_at",
              "type": "string"
            }
          ],
          "internalType": "struct PatientRecords.Record[]",
          "name": "",
          "type": "tuple[]"
        }
      ],
      "payable": false,
      "stateMutability": "view",
      "type": "function"
    }
  ],
  "bytecode": "0x608060405234801561001057600080fd5b5061195f806100206000396000f3fe608060405234801561001057600080fd5b506004361061007d5760003560e01c806393119a831161005b57806393119a83146100f0578063a87d942c14610125578063c190665b14610143578063c7ceace1146101615761007d565b80632d9130d914610082578063344610671461009e578063475ffbad146100d4575b600080fd5b61009c6004803603610097919081019061121e565b610191565b005b6100b860048036036100b39190810190611435565b6102e4565b6040516100cb97969594939291906116f3565b60405180910390f35b6100ee60048036036100e9919081019061131f565b61064b565b005b61010a60048036036101059190810190611435565b6107af565b60405161011c9695949392919061164d565b60405180910390f35b61012d610b10565b60405161013a9190611785565b60405180910390f35b61014b610b1d565b6040516101589190611785565b60405180910390f35b61017b600480360361017691908101906111f5565b610b29565b60405161018891906116d1565b60405180910390f35b60006040518060c001604052808873ffffffffffffffffffffffffffffffffffffffff168152602001878152602001868152602001858152602001848152602001838152509080600181540180825580915050906001820390600052602060002090600602016000909192909190915060008201518160000160006101000a81548173ffffffffffffffffffffffffffffffffffffffff021916908373ffffffffffffffffffffffffffffffffffffffff160217905550602082015181600101908051906020019061026492919061107f565b50604082015181600201908051906020019061028192919061107f565b50606082015181600301908051906020019061029e92919061107f565b5060808201518160040190805190602001906102bb92919061107f565b5060a08201518160050190805190602001906102d892919061107f565b50505050505050505050565b600181815481106102f157fe5b9060005260206000209060070201600091509050806000018054600181600116156101000203166002900480601f01602080910402602001604051908101604052809291908181526020018280546001816001161561010002031660029004801561039d5780601f106103725761010080835404028352916020019161039d565b820191906000526020600020905b81548152906001019060200180831161038057829003601f168201915b5050505050908060010160009054906101000a900473ffffffffffffffffffffffffffffffffffffffff1690806002018054600181600116156101000203166002900480601f0160208091040260200160405190810160405280929190818152602001828054600181600116156101000203166002900480156104615780601f1061043657610100808354040283529160200191610461565b820191906000526020600020905b81548152906001019060200180831161044457829003601f168201915b505050505090806003015490806004018054600181600116156101000203166002900480601f0160208091040260200160405190810160405280929190818152602001828054600181600116156101000203166002900480156105055780601f106104da57610100808354040283529160200191610505565b820191906000526020600020905b8154815290600101906020018083116104e857829003601f168201915b505050505090806005018054600181600116156101000203166002900480601f0160208091040260200160405190810160405280929190818152602001828054600181600116156101000203166002900480156105a35780601f10610578576101008083540402835291602001916105a3565b820191906000526020600020905b81548152906001019060200180831161058657829003601f168201915b505050505090806006018054600181600116156101000203166002900480601f0160208091040260200160405190810160405280929190818152602001828054600181600116156101000203166002900480156106415780601f1061061657610100808354040283529160200191610641565b820191906000526020600020905b81548152906001019060200180831161062457829003601f168201915b5050505050905087565b60016040518060e001604052808981526020018873ffffffffffffffffffffffffffffffffffffffff168152602001878152602001868152602001858152602001848152602001838152509080600181540180825580915050906001820390600052602060002090600702016000909192909190915060008201518160000190805190602001906106dd92919061107f565b5060208201518160010160006101000a81548173ffffffffffffffffffffffffffffffffffffffff021916908373ffffffffffffffffffffffffffffffffffffffff160217905550604082015181600201908051906020019061074192919061107f565b5060608201518160030155608082015181600401908051906020019061076892919061107f565b5060a082015181600501908051906020019061078592919061107f565b5060c08201518160060190805190602001906107a292919061107f565b5050505050505050505050565b600081815481106107bc57fe5b90600052602060002090600602016000915090508060000160009054906101000a900473ffffffffffffffffffffffffffffffffffffffff1690806001018054600181600116156101000203166002900480601f01602080910402602001604051908101604052809291908181526020018280546001816001161561010002031660029004801561088e5780601f106108635761010080835404028352916020019161088e565b820191906000526020600020905b81548152906001019060200180831161087157829003601f168201915b505050505090806002018054600181600116156101000203166002900480601f01602080910402602001604051908101604052809291908181526020018280546001816001161561010002031660029004801561092c5780601f106109015761010080835404028352916020019161092c565b820191906000526020600020905b81548152906001019060200180831161090f57829003601f168201915b505050505090806003018054600181600116156101000203166002900480601f0160208091040260200160405190810160405280929190818152602001828054600181600116156101000203166002900480156109ca5780601f1061099f576101008083540402835291602001916109ca565b820191906000526020600020905b8154815290600101906020018083116109ad57829003601f168201915b505050505090806004018054600181600116156101000203166002900480601f016020809104026020016040519081016040528092919081815260200182805460018160011615610100020316600290048015610a685780601f10610a3d57610100808354040283529160200191610a68565b820191906000526020600020905b815481529060010190602001808311610a4b57829003601f168201915b505050505090806005018054600181600116156101000203166002900480601f016020809104026020016040519081016040528092919081815260200182805460018160011615610100020316600290048015610b065780601f10610adb57610100808354040283529160200191610b06565b820191906000526020600020905b815481529060010190602001808311610ae957829003601f168201915b5050505050905086565b6000600180549050905090565b60008080549050905090565b606060008060009050600091505b610b3f610b10565b821015610bce578373ffffffffffffffffffffffffffffffffffffffff1660018381548110610b6a57fe5b906000526020600020906007020160010160009054906101000a900473ffffffffffffffffffffffffffffffffffffffff1673ffffffffffffffffffffffffffffffffffffffff161415610bc15780806001019150505b8180600101925050610b37565b606081604051908082528060200260200182016040528015610c0a57816020015b610bf76110ff565b815260200190600190039081610bef5790505b50905060009150600092505b610c1e610b10565b831015611074578473ffffffffffffffffffffffffffffffffffffffff1660018481548110610c4957fe5b906000526020600020906007020160010160009054906101000a900473ffffffffffffffffffffffffffffffffffffffff1673ffffffffffffffffffffffffffffffffffffffff1614156110675760018381548110610ca457fe5b90600052602060002090600702016040518060e0016040529081600082018054600181600116156101000203166002900480601f016020809104026020016040519081016040528092919081815260200182805460018160011615610100020316600290048015610d565780601f10610d2b57610100808354040283529160200191610d56565b820191906000526020600020905b815481529060010190602001808311610d3957829003601f168201915b505050505081526020016001820160009054906101000a900473ffffffffffffffffffffffffffffffffffffffff1673ffffffffffffffffffffffffffffffffffffffff1673ffffffffffffffffffffffffffffffffffffffff168152602001600282018054600181600116156101000203166002900480601f016020809104026020016040519081016040528092919081815260200182805460018160011615610100020316600290048015610e4e5780601f10610e2357610100808354040283529160200191610e4e565b820191906000526020600020905b815481529060010190602001808311610e3157829003601f168201915b5050505050815260200160038201548152602001600482018054600181600116156101000203166002900480601f016020809104026020016040519081016040528092919081815260200182805460018160011615610100020316600290048015610efa5780601f10610ecf57610100808354040283529160200191610efa565b820191906000526020600020905b815481529060010190602001808311610edd57829003601f168201915b50505050508152602001600582018054600181600116156101000203166002900480601f016020809104026020016040519081016040528092919081815260200182805460018160011615610100020316600290048015610f9c5780601f10610f7157610100808354040283529160200191610f9c565b820191906000526020600020905b815481529060010190602001808311610f7f57829003601f168201915b50505050508152602001600682018054600181600116156101000203166002900480601f01602080910402602001604051908101604052809291908181526020018280546001816001161561010002031660029004801561103e5780601f106110135761010080835404028352916020019161103e565b820191906000526020600020905b81548152906001019060200180831161102157829003601f168201915b50505050508152505081838151811061105357fe5b602002602001018190525081806001019250505b8280600101935050610c16565b809350505050919050565b828054600181600116156101000203166002900490600052602060002090601f016020900481019282601f106110c057805160ff19168380011785556110ee565b828001600101855582156110ee579182015b828111156110ed5782518255916020019190600101906110d2565b5b5090506110fb9190611152565b5090565b6040518060e0016040528060608152602001600073ffffffffffffffffffffffffffffffffffffffff16815260200160608152602001600081526020016060815260200160608152602001606081525090565b61117491905b80821115611170576000816000905550600101611158565b5090565b90565b600081359050611186816118ee565b92915050565b600082601f83011261119d57600080fd5b81356111b06111ab826117cd565b6117a0565b915080825260208301602083018583830111156111cc57600080fd5b6111d783828461189b565b50505092915050565b6000813590506111ef81611905565b92915050565b60006020828403121561120757600080fd5b600061121584828501611177565b91505092915050565b60008060008060008060c0878903121561123757600080fd5b600061124589828a01611177565b965050602087013567ffffffffffffffff81111561126257600080fd5b61126e89828a0161118c565b955050604087013567ffffffffffffffff81111561128b57600080fd5b61129789828a0161118c565b945050606087013567ffffffffffffffff8111156112b457600080fd5b6112c089828a0161118c565b935050608087013567ffffffffffffffff8111156112dd57600080fd5b6112e989828a0161118c565b92505060a087013567ffffffffffffffff81111561130657600080fd5b61131289828a0161118c565b9150509295509295509295565b600080600080600080600060e0888a03121561133a57600080fd5b600088013567ffffffffffffffff81111561135457600080fd5b6113608a828b0161118c565b97505060206113718a828b01611177565b965050604088013567ffffffffffffffff81111561138e57600080fd5b61139a8a828b0161118c565b95505060606113ab8a828b016111e0565b945050608088013567ffffffffffffffff8111156113c857600080fd5b6113d48a828b0161118c565b93505060a088013567ffffffffffffffff8111156113f157600080fd5b6113fd8a828b0161118c565b92505060c088013567ffffffffffffffff81111561141a57600080fd5b6114268a828b0161118c565b91505092959891949750929550565b60006020828403121561144757600080fd5b6000611455848285016111e0565b91505092915050565b600061146a8383611577565b905092915050565b61147b8161185f565b82525050565b61148a8161185f565b82525050565b600061149b82611809565b6114a5818561182c565b9350836020820285016114b7856117f9565b8060005b858110156114f357848403895281516114d4858261145e565b94506114df8361181f565b925060208a019950506001810190506114bb565b50829750879550505050505092915050565b600061151082611814565b61151a818561183d565b935061152a8185602086016118aa565b611533816118dd565b840191505092915050565b600061154982611814565b611553818561184e565b93506115638185602086016118aa565b61156c816118dd565b840191505092915050565b600060e08301600083015184820360008601526115948282611505565b91505060208301516115a96020860182611472565b50604083015184820360408601526115c18282611505565b91505060608301516115d6606086018261162f565b50608083015184820360808601526115ee8282611505565b91505060a083015184820360a08601526116088282611505565b91505060c083015184820360c08601526116228282611505565b9150508091505092915050565b61163881611891565b82525050565b61164781611891565b82525050565b600060c0820190506116626000830189611481565b8181036020830152611674818861153e565b90508181036040830152611688818761153e565b9050818103606083015261169c818661153e565b905081810360808301526116b0818561153e565b905081810360a08301526116c4818461153e565b9050979650505050505050565b600060208201905081810360008301526116eb8184611490565b905092915050565b600060e082019050818103600083015261170d818a61153e565b905061171c6020830189611481565b818103604083015261172e818861153e565b905061173d606083018761163e565b818103608083015261174f818661153e565b905081810360a0830152611763818561153e565b905081810360c0830152611777818461153e565b905098975050505050505050565b600060208201905061179a600083018461163e565b92915050565b6000604051905081810181811067ffffffffffffffff821117156117c357600080fd5b8060405250919050565b600067ffffffffffffffff8211156117e457600080fd5b601f19601f8301169050602081019050919050565b6000819050602082019050919050565b600081519050919050565b600081519050919050565b6000602082019050919050565b600082825260208201905092915050565b600082825260208201905092915050565b600082825260208201905092915050565b600061186a82611871565b9050919050565b600073ffffffffffffffffffffffffffffffffffffffff82169050919050565b6000819050919050565b82818337600083830152505050565b60005b838110156118c85780820151818401526020810190506118ad565b838111156118d7576000848401525b50505050565b6000601f19601f8301169050919050565b6118f78161185f565b811461190257600080fd5b50565b61190e81611891565b811461191957600080fd5b5056fea365627a7a7231582034ff16de34e5616e048a5250e133ea9a57ae991d627d77204b4b86d6af2708726c6578706572696d656e74616cf564736f6c63430005100040",
  "source": "pragma solidity ^0.5.16;\r\npragma experimental ABIEncoderV2;\r\n\r\ncontract PatientRecords {\r\n    struct Patient {\r\n        address user_address;\r\n        string username;\r\n        string name;\r\n        string gender;\r\n        string dateOfBirth;\r\n        string created_at;\r\n    }\r\n    Patient[] public patients;\r\n\r\n    function addPatient(\r\n        address _user_address,\r\n        string memory _username,\r\n        string memory _name,\r\n        string memory _gender,\r\n        string memory _dateOfBirth,\r\n        string memory _created_at\r\n    ) public {\r\n        patients.push(\r\n            Patient({\r\n                user_address: _user_address,\r\n                name: _name,\r\n                username: _username,\r\n                gender: _gender,\r\n                dateOfBirth: _dateOfBirth,\r\n                created_at: _created_at\r\n            })\r\n        );\r\n    }\r\n\r\n    struct Record {\r\n        string id;\r\n        address user_address;\r\n        string title;\r\n        uint256 date;\r\n        string filename;\r\n        string file;\r\n        string created_at;\r\n    }\r\n    Record[] public records;\r\n\r\n    function addRecord(\r\n        string memory _id,\r\n        address _user_address,\r\n        string memory _title,\r\n        uint256 _date,\r\n        string memory _filename,\r\n        string memory _file,\r\n        string memory _created_at\r\n    ) public {\r\n        records.push(\r\n            Record({\r\n                id: _id,\r\n                user_address: _user_address,\r\n                title: _title,\r\n                date: _date,\r\n                filename: _filename,\r\n                file: _file,\r\n                created_at: _created_at\r\n            })\r\n        );\r\n    }\r\n\r\n    function getCount() public view returns (uint count) {\r\n        return records.length;\r\n    }\r\n    function getPatientCount() public view returns (uint count) {\r\n        return patients.length;\r\n    }\r\n\r\n    function getAllRecordsForAddress(\r\n        address user_address\r\n    ) public view returns (Record[] memory) {\r\n        uint i;\r\n        uint count = 0;\r\n        for (i = 0; i < getCount(); i++) {\r\n            if (records[i].user_address == user_address) {\r\n                count++;\r\n            }\r\n        }\r\n\r\n        Record[] memory userRecords = new Record[](count);\r\n        count = 0;\r\n        for (i = 0; i < getCount(); i++) {\r\n            if (records[i].user_address == user_address) {\r\n                userRecords[count] = records[i];\r\n                count++;\r\n            }\r\n        }\r\n        return userRecords;\r\n    }\r\n    \r\n}\r\n",
  "sourcePath": "C:\\Users\\vikra\\Desktop\\HackMatrix\\contract\\contracts\\Patient.sol",
  "compiler": {
    "name": "solc",
    "version": "0.5.16+commit.9c3226ce.Emscripten.clang"
  },
  "schemaVersion": "3.4.16",
  "updatedAt": "2024-02-18T06:36:18.343Z",
  "networkType": "ethereum",
  "devdoc": {
    "methods": {}
  },
  "userdoc": {
    "methods": {}
  }
}