{
  "contractName": "PatientRecords",
  "abi": [
    {
      "constant": true,
      "inputs": [
        {
          "internalType": "uint256",
          "name": "",
          "type": "uint256"
        }
      ],
      "name": "patients",
      "outputs": [
        {
          "internalType": "address",
          "name": "user_address",
          "type": "address"
        },
        {
          "internalType": "string",
          "name": "username",
          "type": "string"
        },
        {
          "internalType": "string",
          "name": "name",
          "type": "string"
        },
        {
          "internalType": "string",
          "name": "gender",
          "type": "string"
        },
        {
          "internalType": "string",
          "name": "dateOfBirth",
          "type": "string"
        },
        {
          "internalType": "string",
          "name": "created_at",
          "type": "string"
        }
      ],
      "payable": false,
      "stateMutability": "view",
      "type": "function"
    },
    {
      "constant": true,
      "inputs": [
        {
          "internalType": "uint256",
          "name": "",
          "type": "uint256"
        }
      ],
      "name": "records",
      "outputs": [
        {
          "internalType": "string",
          "name": "id",
          "type": "string"
        },
        {
          "internalType": "address",
          "name": "user_address",
          "type": "address"
        },
        {
          "internalType": "string",
          "name": "title",
          "type": "string"
        },
        {
          "internalType": "uint256",
          "name": "date",
          "type": "uint256"
        },
        {
          "internalType": "string",
          "name": "filename",
          "type": "string"
        },
        {
          "internalType": "string",
          "name": "file",
          "type": "string"
        },
        {
          "internalType": "string",
          "name": "created_at",
          "type": "string"
        }
      ],
      "payable": false,
      "stateMutability": "view",
      "type": "function"
    },
    {
      "constant": false,
      "inputs": [
        {
          "internalType": "address",
          "name": "user",
          "type": "address"
        }
      ],
      "name": "allow",
      "outputs": [],
      "payable": false,
      "stateMutability": "nonpayable",
      "type": "function"
    },
    {
      "constant": false,
      "inputs": [
        {
          "internalType": "address",
          "name": "user",
          "type": "address"
        }
      ],
      "name": "disallow",
      "outputs": [],
      "payable": false,
      "stateMutability": "nonpayable",
      "type": "function"
    },
    {
      "constant": true,
      "inputs": [],
      "name": "shareAccess",
      "outputs": [
        {
          "components": [
            {
              "internalType": "address",
              "name": "user",
              "type": "address"
            },
            {
              "internalType": "bool",
              "name": "access",
              "type": "bool"
            }
          ],
          "internalType": "struct PatientRecords.Access[]",
          "name": "",
          "type": "tuple[]"
        }
      ],
      "payable": false,
      "stateMutability": "view",
      "type": "function"
    },
    {
      "constant": false,
      "inputs": [
        {
          "internalType": "address",
          "name": "_user_address",
          "type": "address"
        },
        {
          "internalType": "string",
          "name": "_username",
          "type": "string"
        },
        {
          "internalType": "string",
          "name": "_name",
          "type": "string"
        },
        {
          "internalType": "string",
          "name": "_gender",
          "type": "string"
        },
        {
          "internalType": "string",
          "name": "_dateOfBirth",
          "type": "string"
        },
        {
          "internalType": "string",
          "name": "_created_at",
          "type": "string"
        }
      ],
      "name": "addPatient",
      "outputs": [],
      "payable": false,
      "stateMutability": "nonpayable",
      "type": "function"
    },
    {
      "constant": false,
      "inputs": [
        {
          "internalType": "string",
          "name": "_id",
          "type": "string"
        },
        {
          "internalType": "address",
          "name": "_user_address",
          "type": "address"
        },
        {
          "internalType": "string",
          "name": "_title",
          "type": "string"
        },
        {
          "internalType": "uint256",
          "name": "_date",
          "type": "uint256"
        },
        {
          "internalType": "string",
          "name": "_filename",
          "type": "string"
        },
        {
          "internalType": "string",
          "name": "_file",
          "type": "string"
        },
        {
          "internalType": "string",
          "name": "_created_at",
          "type": "string"
        }
      ],
      "name": "addRecord",
      "outputs": [],
      "payable": false,
      "stateMutability": "nonpayable",
      "type": "function"
    },
    {
      "constant": true,
      "inputs": [],
      "name": "getCount",
      "outputs": [
        {
          "internalType": "uint256",
          "name": "count",
          "type": "uint256"
        }
      ],
      "payable": false,
      "stateMutability": "view",
      "type": "function"
    },
    {
      "constant": true,
      "inputs": [],
      "name": "getPatientCount",
      "outputs": [
        {
          "internalType": "uint256",
          "name": "count",
          "type": "uint256"
        }
      ],
      "payable": false,
      "stateMutability": "view",
      "type": "function"
    },
    {
      "constant": true,
      "inputs": [
        {
          "internalType": "address",
          "name": "user_address",
          "type": "address"
        }
      ],
      "name": "getAllRecordsForAddress",
      "outputs": [
        {
          "components": [
            {
              "internalType": "string",
              "name": "id",
              "type": "string"
            },
            {
              "internalType": "address",
              "name": "user_address",
              "type": "address"
            },
            {
              "internalType": "string",
              "name": "title",
              "type": "string"
            },
            {
              "internalType": "uint256",
              "name": "date",
              "type": "uint256"
            },
            {
              "internalType": "string",
              "name": "filename",
              "type": "string"
            },
            {
              "internalType": "string",
              "name": "file",
              "type": "string"
            },
            {
              "internalType": "string",
              "name": "created_at",
              "type": "string"
            }
          ],
          "internalType": "struct PatientRecords.Record[]",
          "name": "",
          "type": "tuple[]"
        }
      ],
      "payable": false,
      "stateMutability": "view",
      "type": "function"
    }
  ],
  "bytecode": "0x608060405234801561001057600080fd5b50612246806100206000396000f3fe608060405234801561001057600080fd5b506004361061009e5760003560e01c8063a9ed9cb811610066578063a9ed9cb814610164578063bc8bef8114610180578063c190665b1461019e578063c7ceace1146101bc578063ff9913e8146101ec5761009e565b80632d9130d9146100a357806334461067146100bf578063475ffbad146100f557806393119a8314610111578063a87d942c14610146575b600080fd5b6100bd60048036036100b891908101906119ea565b610208565b005b6100d960048036036100d49190810190611c01565b61035b565b6040516100ec9796959493929190611f95565b60405180910390f35b61010f600480360361010a9190810190611aeb565b6106c2565b005b61012b60048036036101269190810190611c01565b610826565b60405161013d96959493929190611ecd565b60405180910390f35b61014e610b87565b60405161015b9190612027565b60405180910390f35b61017e600480360361017991908101906119c1565b610b94565b005b610188610da6565b6040516101959190611f51565b60405180910390f35b6101a6610eaf565b6040516101b39190612027565b60405180910390f35b6101d660048036036101d191908101906119c1565b610ebc565b6040516101e39190611f73565b60405180910390f35b610206600480360361020191908101906119c1565b611412565b005b60046040518060c001604052808873ffffffffffffffffffffffffffffffffffffffff168152602001878152602001868152602001858152602001848152602001838152509080600181540180825580915050906001820390600052602060002090600602016000909192909190915060008201518160000160006101000a81548173ffffffffffffffffffffffffffffffffffffffff021916908373ffffffffffffffffffffffffffffffffffffffff16021790555060208201518160010190805190602001906102db92919061184b565b5060408201518160020190805190602001906102f892919061184b565b50606082015181600301908051906020019061031592919061184b565b50608082015181600401908051906020019061033292919061184b565b5060a082015181600501908051906020019061034f92919061184b565b50505050505050505050565b6005818154811061036857fe5b9060005260206000209060070201600091509050806000018054600181600116156101000203166002900480601f0160208091040260200160405190810160405280929190818152602001828054600181600116156101000203166002900480156104145780601f106103e957610100808354040283529160200191610414565b820191906000526020600020905b8154815290600101906020018083116103f757829003601f168201915b5050505050908060010160009054906101000a900473ffffffffffffffffffffffffffffffffffffffff1690806002018054600181600116156101000203166002900480601f0160208091040260200160405190810160405280929190818152602001828054600181600116156101000203166002900480156104d85780601f106104ad576101008083540402835291602001916104d8565b820191906000526020600020905b8154815290600101906020018083116104bb57829003601f168201915b505050505090806003015490806004018054600181600116156101000203166002900480601f01602080910402602001604051908101604052809291908181526020018280546001816001161561010002031660029004801561057c5780601f106105515761010080835404028352916020019161057c565b820191906000526020600020905b81548152906001019060200180831161055f57829003601f168201915b505050505090806005018054600181600116156101000203166002900480601f01602080910402602001604051908101604052809291908181526020018280546001816001161561010002031660029004801561061a5780601f106105ef5761010080835404028352916020019161061a565b820191906000526020600020905b8154815290600101906020018083116105fd57829003601f168201915b505050505090806006018054600181600116156101000203166002900480601f0160208091040260200160405190810160405280929190818152602001828054600181600116156101000203166002900480156106b85780601f1061068d576101008083540402835291602001916106b8565b820191906000526020600020905b81548152906001019060200180831161069b57829003601f168201915b5050505050905087565b60056040518060e001604052808981526020018873ffffffffffffffffffffffffffffffffffffffff1681526020018781526020018681526020018581526020018481526020018381525090806001815401808255809150509060018203906000526020600020906007020160009091929091909150600082015181600001908051906020019061075492919061184b565b5060208201518160010160006101000a81548173ffffffffffffffffffffffffffffffffffffffff021916908373ffffffffffffffffffffffffffffffffffffffff16021790555060408201518160020190805190602001906107b892919061184b565b506060820151816003015560808201518160040190805190602001906107df92919061184b565b5060a08201518160050190805190602001906107fc92919061184b565b5060c082015181600601908051906020019061081992919061184b565b5050505050505050505050565b6004818154811061083357fe5b90600052602060002090600602016000915090508060000160009054906101000a900473ffffffffffffffffffffffffffffffffffffffff1690806001018054600181600116156101000203166002900480601f0160208091040260200160405190810160405280929190818152602001828054600181600116156101000203166002900480156109055780601f106108da57610100808354040283529160200191610905565b820191906000526020600020905b8154815290600101906020018083116108e857829003601f168201915b505050505090806002018054600181600116156101000203166002900480601f0160208091040260200160405190810160405280929190818152602001828054600181600116156101000203166002900480156109a35780601f10610978576101008083540402835291602001916109a3565b820191906000526020600020905b81548152906001019060200180831161098657829003601f168201915b505050505090806003018054600181600116156101000203166002900480601f016020809104026020016040519081016040528092919081815260200182805460018160011615610100020316600290048015610a415780601f10610a1657610100808354040283529160200191610a41565b820191906000526020600020905b815481529060010190602001808311610a2457829003601f168201915b505050505090806004018054600181600116156101000203166002900480601f016020809104026020016040519081016040528092919081815260200182805460018160011615610100020316600290048015610adf5780601f10610ab457610100808354040283529160200191610adf565b820191906000526020600020905b815481529060010190602001808311610ac257829003601f168201915b505050505090806005018054600181600116156101000203166002900480601f016020809104026020016040519081016040528092919081815260200182805460018160011615610100020316600290048015610b7d5780601f10610b5257610100808354040283529160200191610b7d565b820191906000526020600020905b815481529060010190602001808311610b6057829003601f168201915b5050505050905086565b6000600580549050905090565b6000600160003373ffffffffffffffffffffffffffffffffffffffff1673ffffffffffffffffffffffffffffffffffffffff16815260200190815260200160002060008373ffffffffffffffffffffffffffffffffffffffff1673ffffffffffffffffffffffffffffffffffffffff16815260200190815260200160002060006101000a81548160ff02191690831515021790555060008090505b600260003373ffffffffffffffffffffffffffffffffffffffff1673ffffffffffffffffffffffffffffffffffffffff16815260200190815260200160002080549050811015610da2578173ffffffffffffffffffffffffffffffffffffffff16600260003373ffffffffffffffffffffffffffffffffffffffff1673ffffffffffffffffffffffffffffffffffffffff1681526020019081526020016000208281548110610cda57fe5b9060005260206000200160000160009054906101000a900473ffffffffffffffffffffffffffffffffffffffff1673ffffffffffffffffffffffffffffffffffffffff161415610d95576000600260003373ffffffffffffffffffffffffffffffffffffffff1673ffffffffffffffffffffffffffffffffffffffff1681526020019081526020016000208281548110610d7057fe5b9060005260206000200160000160146101000a81548160ff0219169083151502179055505b8080600101915050610c2f565b5050565b6060600260003373ffffffffffffffffffffffffffffffffffffffff1673ffffffffffffffffffffffffffffffffffffffff168152602001908152602001600020805480602002602001604051908101604052809291908181526020016000905b82821015610ea6578382906000526020600020016040518060400160405290816000820160009054906101000a900473ffffffffffffffffffffffffffffffffffffffff1673ffffffffffffffffffffffffffffffffffffffff1673ffffffffffffffffffffffffffffffffffffffff1681526020016000820160149054906101000a900460ff16151515158152505081526020019060010190610e07565b50505050905090565b6000600480549050905090565b606060008060009050600091505b610ed2610b87565b821015610f61578373ffffffffffffffffffffffffffffffffffffffff1660058381548110610efd57fe5b906000526020600020906007020160010160009054906101000a900473ffffffffffffffffffffffffffffffffffffffff1673ffffffffffffffffffffffffffffffffffffffff161415610f545780806001019150505b8180600101925050610eca565b606081604051908082528060200260200182016040528015610f9d57816020015b610f8a6118cb565b815260200190600190039081610f825790505b50905060009150600092505b610fb1610b87565b831015611407578473ffffffffffffffffffffffffffffffffffffffff1660058481548110610fdc57fe5b906000526020600020906007020160010160009054906101000a900473ffffffffffffffffffffffffffffffffffffffff1673ffffffffffffffffffffffffffffffffffffffff1614156113fa576005838154811061103757fe5b90600052602060002090600702016040518060e0016040529081600082018054600181600116156101000203166002900480601f0160208091040260200160405190810160405280929190818152602001828054600181600116156101000203166002900480156110e95780601f106110be576101008083540402835291602001916110e9565b820191906000526020600020905b8154815290600101906020018083116110cc57829003601f168201915b505050505081526020016001820160009054906101000a900473ffffffffffffffffffffffffffffffffffffffff1673ffffffffffffffffffffffffffffffffffffffff1673ffffffffffffffffffffffffffffffffffffffff168152602001600282018054600181600116156101000203166002900480601f0160208091040260200160405190810160405280929190818152602001828054600181600116156101000203166002900480156111e15780601f106111b6576101008083540402835291602001916111e1565b820191906000526020600020905b8154815290600101906020018083116111c457829003601f168201915b5050505050815260200160038201548152602001600482018054600181600116156101000203166002900480601f01602080910402602001604051908101604052809291908181526020018280546001816001161561010002031660029004801561128d5780601f106112625761010080835404028352916020019161128d565b820191906000526020600020905b81548152906001019060200180831161127057829003601f168201915b50505050508152602001600582018054600181600116156101000203166002900480601f01602080910402602001604051908101604052809291908181526020018280546001816001161561010002031660029004801561132f5780601f106113045761010080835404028352916020019161132f565b820191906000526020600020905b81548152906001019060200180831161131257829003601f168201915b50505050508152602001600682018054600181600116156101000203166002900480601f0160208091040260200160405190810160405280929190818152602001828054600181600116156101000203166002900480156113d15780601f106113a6576101008083540402835291602001916113d1565b820191906000526020600020905b8154815290600101906020018083116113b457829003601f168201915b5050505050815250508183815181106113e657fe5b602002602001018190525081806001019250505b8280600101935050610fa9565b809350505050919050565b60018060003373ffffffffffffffffffffffffffffffffffffffff1673ffffffffffffffffffffffffffffffffffffffff16815260200190815260200160002060008373ffffffffffffffffffffffffffffffffffffffff1673ffffffffffffffffffffffffffffffffffffffff16815260200190815260200160002060006101000a81548160ff021916908315150217905550600360003373ffffffffffffffffffffffffffffffffffffffff1673ffffffffffffffffffffffffffffffffffffffff16815260200190815260200160002060008273ffffffffffffffffffffffffffffffffffffffff1673ffffffffffffffffffffffffffffffffffffffff16815260200190815260200160002060009054906101000a900460ff16156116b45760008090505b600260003373ffffffffffffffffffffffffffffffffffffffff1673ffffffffffffffffffffffffffffffffffffffff168152602001908152602001600020805490508110156116ae578173ffffffffffffffffffffffffffffffffffffffff16600260003373ffffffffffffffffffffffffffffffffffffffff1673ffffffffffffffffffffffffffffffffffffffff16815260200190815260200160002082815481106115e657fe5b9060005260206000200160000160009054906101000a900473ffffffffffffffffffffffffffffffffffffffff1673ffffffffffffffffffffffffffffffffffffffff1614156116a1576001600260003373ffffffffffffffffffffffffffffffffffffffff1673ffffffffffffffffffffffffffffffffffffffff168152602001908152602001600020828154811061167c57fe5b9060005260206000200160000160146101000a81548160ff0219169083151502179055505b808060010191505061153b565b50611848565b600260003373ffffffffffffffffffffffffffffffffffffffff1673ffffffffffffffffffffffffffffffffffffffff16815260200190815260200160002060405180604001604052808373ffffffffffffffffffffffffffffffffffffffff1681526020016001151581525090806001815401808255809150509060018203906000526020600020016000909192909190915060008201518160000160006101000a81548173ffffffffffffffffffffffffffffffffffffffff021916908373ffffffffffffffffffffffffffffffffffffffff16021790555060208201518160000160146101000a81548160ff0219169083151502179055505050506001600360003373ffffffffffffffffffffffffffffffffffffffff1673ffffffffffffffffffffffffffffffffffffffff16815260200190815260200160002060008373ffffffffffffffffffffffffffffffffffffffff1673ffffffffffffffffffffffffffffffffffffffff16815260200190815260200160002060006101000a81548160ff0219169083151502179055505b50565b828054600181600116156101000203166002900490600052602060002090601f016020900481019282601f1061188c57805160ff19168380011785556118ba565b828001600101855582156118ba579182015b828111156118b957825182559160200191906001019061189e565b5b5090506118c7919061191e565b5090565b6040518060e0016040528060608152602001600073ffffffffffffffffffffffffffffffffffffffff16815260200160608152602001600081526020016060815260200160608152602001606081525090565b61194091905b8082111561193c576000816000905550600101611924565b5090565b90565b600081359050611952816121d5565b92915050565b600082601f83011261196957600080fd5b813561197c6119778261206f565b612042565b9150808252602083016020830185838301111561199857600080fd5b6119a3838284612182565b50505092915050565b6000813590506119bb816121ec565b92915050565b6000602082840312156119d357600080fd5b60006119e184828501611943565b91505092915050565b60008060008060008060c08789031215611a0357600080fd5b6000611a1189828a01611943565b965050602087013567ffffffffffffffff811115611a2e57600080fd5b611a3a89828a01611958565b955050604087013567ffffffffffffffff811115611a5757600080fd5b611a6389828a01611958565b945050606087013567ffffffffffffffff811115611a8057600080fd5b611a8c89828a01611958565b935050608087013567ffffffffffffffff811115611aa957600080fd5b611ab589828a01611958565b92505060a087013567ffffffffffffffff811115611ad257600080fd5b611ade89828a01611958565b9150509295509295509295565b600080600080600080600060e0888a031215611b0657600080fd5b600088013567ffffffffffffffff811115611b2057600080fd5b611b2c8a828b01611958565b9750506020611b3d8a828b01611943565b965050604088013567ffffffffffffffff811115611b5a57600080fd5b611b668a828b01611958565b9550506060611b778a828b016119ac565b945050608088013567ffffffffffffffff811115611b9457600080fd5b611ba08a828b01611958565b93505060a088013567ffffffffffffffff811115611bbd57600080fd5b611bc98a828b01611958565b92505060c088013567ffffffffffffffff811115611be657600080fd5b611bf28a828b01611958565b91505092959891949750929550565b600060208284031215611c1357600080fd5b6000611c21848285016119ac565b91505092915050565b6000611c368383611dc8565b60408301905092915050565b6000611c4e8383611df7565b905092915050565b611c5f8161213a565b82525050565b611c6e8161213a565b82525050565b6000611c7f826120bb565b611c8981856120f6565b9350611c948361209b565b8060005b83811015611cc5578151611cac8882611c2a565b9750611cb7836120dc565b925050600181019050611c98565b5085935050505092915050565b6000611cdd826120c6565b611ce78185612107565b935083602082028501611cf9856120ab565b8060005b85811015611d355784840389528151611d168582611c42565b9450611d21836120e9565b925060208a01995050600181019050611cfd565b50829750879550505050505092915050565b611d508161214c565b82525050565b6000611d61826120d1565b611d6b8185612118565b9350611d7b818560208601612191565b611d84816121c4565b840191505092915050565b6000611d9a826120d1565b611da48185612129565b9350611db4818560208601612191565b611dbd816121c4565b840191505092915050565b604082016000820151611dde6000850182611c56565b506020820151611df16020850182611d47565b50505050565b600060e0830160008301518482036000860152611e148282611d56565b9150506020830151611e296020860182611c56565b5060408301518482036040860152611e418282611d56565b9150506060830151611e566060860182611eaf565b5060808301518482036080860152611e6e8282611d56565b91505060a083015184820360a0860152611e888282611d56565b91505060c083015184820360c0860152611ea28282611d56565b9150508091505092915050565b611eb881612178565b82525050565b611ec781612178565b82525050565b600060c082019050611ee26000830189611c65565b8181036020830152611ef48188611d8f565b90508181036040830152611f088187611d8f565b90508181036060830152611f1c8186611d8f565b90508181036080830152611f308185611d8f565b905081810360a0830152611f448184611d8f565b9050979650505050505050565b60006020820190508181036000830152611f6b8184611c74565b905092915050565b60006020820190508181036000830152611f8d8184611cd2565b905092915050565b600060e0820190508181036000830152611faf818a611d8f565b9050611fbe6020830189611c65565b8181036040830152611fd08188611d8f565b9050611fdf6060830187611ebe565b8181036080830152611ff18186611d8f565b905081810360a08301526120058185611d8f565b905081810360c08301526120198184611d8f565b905098975050505050505050565b600060208201905061203c6000830184611ebe565b92915050565b6000604051905081810181811067ffffffffffffffff8211171561206557600080fd5b8060405250919050565b600067ffffffffffffffff82111561208657600080fd5b601f19601f8301169050602081019050919050565b6000819050602082019050919050565b6000819050602082019050919050565b600081519050919050565b600081519050919050565b600081519050919050565b6000602082019050919050565b6000602082019050919050565b600082825260208201905092915050565b600082825260208201905092915050565b600082825260208201905092915050565b600082825260208201905092915050565b600061214582612158565b9050919050565b60008115159050919050565b600073ffffffffffffffffffffffffffffffffffffffff82169050919050565b6000819050919050565b82818337600083830152505050565b60005b838110156121af578082015181840152602081019050612194565b838111156121be576000848401525b50505050565b6000601f19601f8301169050919050565b6121de8161213a565b81146121e957600080fd5b50565b6121f581612178565b811461220057600080fd5b5056fea365627a7a72315820cd0708b507a654379c5a9c0e543c532852d5b07d7126a20533a5c40764c1aa556c6578706572696d656e74616cf564736f6c63430005100040",
  "source": "pragma solidity ^0.5.16;\r\npragma experimental ABIEncoderV2;\r\n\r\ncontract PatientRecords {\r\n    struct Access {\r\n        address user;\r\n        bool access;\r\n    }\r\n    mapping(address => string[]) value;\r\n    mapping(address => mapping(address => bool)) ownership;\r\n    mapping(address => Access[]) accessList;\r\n    mapping(address => mapping(address => bool)) previousData;\r\n\r\n    function allow(address user) external {\r\n        //def\r\n        ownership[msg.sender][user] = true;\r\n        if (previousData[msg.sender][user]) {\r\n            for (uint i = 0; i < accessList[msg.sender].length; i++) {\r\n                if (accessList[msg.sender][i].user == user) {\r\n                    accessList[msg.sender][i].access = true;\r\n                }\r\n            }\r\n        } else {\r\n            accessList[msg.sender].push(Access(user, true));\r\n            previousData[msg.sender][user] = true;\r\n        }\r\n    }\r\n    function disallow(address user) public {\r\n        ownership[msg.sender][user] = false;\r\n        for (uint i = 0; i < accessList[msg.sender].length; i++) {\r\n            if (accessList[msg.sender][i].user == user) {\r\n                accessList[msg.sender][i].access = false;\r\n            }\r\n        }\r\n    }\r\n    function shareAccess() public view returns (Access[] memory) {\r\n        return accessList[msg.sender];\r\n    }\r\n\r\n    struct Patient {\r\n        address user_address;\r\n        string username;\r\n        string name;\r\n        string gender;\r\n        string dateOfBirth;\r\n        string created_at;\r\n    }\r\n    Patient[] public patients;\r\n\r\n    function addPatient(\r\n        address _user_address,\r\n        string memory _username,\r\n        string memory _name,\r\n        string memory _gender,\r\n        string memory _dateOfBirth,\r\n        string memory _created_at\r\n    ) public {\r\n        patients.push(\r\n            Patient({\r\n                user_address: _user_address,\r\n                name: _name,\r\n                username: _username,\r\n                gender: _gender,\r\n                dateOfBirth: _dateOfBirth,\r\n                created_at: _created_at\r\n            })\r\n        );\r\n    }\r\n\r\n    struct Record {\r\n        string id;\r\n        address user_address;\r\n        string title;\r\n        uint256 date;\r\n        string filename;\r\n        string file;\r\n        string created_at;\r\n    }\r\n    Record[] public records;\r\n\r\n    function addRecord(\r\n        string memory _id,\r\n        address _user_address,\r\n        string memory _title,\r\n        uint256 _date,\r\n        string memory _filename,\r\n        string memory _file,\r\n        string memory _created_at\r\n    ) public {\r\n        records.push(\r\n            Record({\r\n                id: _id,\r\n                user_address: _user_address,\r\n                title: _title,\r\n                date: _date,\r\n                filename: _filename,\r\n                file: _file,\r\n                created_at: _created_at\r\n            })\r\n        );\r\n    }\r\n\r\n    function getCount() public view returns (uint count) {\r\n        return records.length;\r\n    }\r\n    function getPatientCount() public view returns (uint count) {\r\n        return patients.length;\r\n    }\r\n\r\n    function getAllRecordsForAddress(\r\n        address user_address\r\n    ) public view returns (Record[] memory) {\r\n        uint i;\r\n        uint count = 0;\r\n        for (i = 0; i < getCount(); i++) {\r\n            if (records[i].user_address == user_address) {\r\n                count++;\r\n            }\r\n        }\r\n\r\n        Record[] memory userRecords = new Record[](count);\r\n        count = 0;\r\n        for (i = 0; i < getCount(); i++) {\r\n            if (records[i].user_address == user_address) {\r\n                userRecords[count] = records[i];\r\n                count++;\r\n            }\r\n        }\r\n        return userRecords;\r\n    }\r\n}\r\n",
  "sourcePath": "C:\\Users\\vikra\\Desktop\\HackMatrix\\contract\\contracts\\Patient.sol",
  "compiler": {
    "name": "solc",
    "version": "0.5.16+commit.9c3226ce.Emscripten.clang"
  },
  "schemaVersion": "3.4.16",
  "updatedAt": "2024-02-17T19:40:44.291Z",
  "devdoc": {
    "methods": {}
  },
  "userdoc": {
    "methods": {}
  }
}